{
  "contractName": "Ballot",
  "abi": [
    {
      "constant": true,
      "inputs": [],
      "name": "stage",
      "outputs": [
        {
          "name": "",
          "type": "uint8"
        }
      ],
      "payable": false,
      "stateMutability": "view",
      "type": "function",
      "signature": "0xc040e6b8"
    },
    {
      "inputs": [
        {
          "name": "_numProposals",
          "type": "uint8"
        }
      ],
      "payable": false,
      "stateMutability": "nonpayable",
      "type": "constructor",
      "signature": "constructor"
    },
    {
      "constant": false,
      "inputs": [
        {
          "name": "toVoter",
          "type": "address"
        }
      ],
      "name": "registerVoter",
      "outputs": [],
      "payable": false,
      "stateMutability": "nonpayable",
      "type": "function",
      "signature": "0x38db6dd3"
    },
    {
      "constant": false,
      "inputs": [
        {
          "name": "toIndividual",
          "type": "address"
        },
        {
          "name": "toVoter",
          "type": "address"
        }
      ],
      "name": "registerIndividual",
      "outputs": [],
      "payable": false,
      "stateMutability": "nonpayable",
      "type": "function",
      "signature": "0x0306fd69"
    },
    {
      "constant": false,
      "inputs": [
        {
          "name": "toProposal",
          "type": "uint8"
        }
      ],
      "name": "vote",
      "outputs": [],
      "payable": false,
      "stateMutability": "nonpayable",
      "type": "function",
      "signature": "0xb3f98adc"
    },
    {
      "constant": true,
      "inputs": [],
      "name": "winningProposal",
      "outputs": [
        {
          "name": "_winningProposal",
          "type": "uint8"
        }
      ],
      "payable": false,
      "stateMutability": "view",
      "type": "function",
      "signature": "0x609ff1bd"
    }
  ],
  "bytecode": "0x608060405260008055600060015560006002556000600360006101000a81548160ff0219169083600381111561003157fe5b021790555034801561004257600080fd5b5060405160208061093e8339810180604052602081101561006257600080fd5b810190808051906020019092919050505033600360016101000a81548173ffffffffffffffffffffffffffffffffffffffff021916908373ffffffffffffffffffffffffffffffffffffffff160217905550600160046000600360019054906101000a900473ffffffffffffffffffffffffffffffffffffffff1673ffffffffffffffffffffffffffffffffffffffff1673ffffffffffffffffffffffffffffffffffffffff168152602001908152602001600020600001819055508060ff1660068161012f919061015a565b506001600360006101000a81548160ff0219169083600381111561014f57fe5b0217905550506101ad565b815481835581811115610181578183600052602060002091820191016101809190610186565b5b505050565b6101aa91905b808211156101a6576000808201600090555060010161018c565b5090565b90565b610782806101bc6000396000f3fe60806040526004361061006d576000357c0100000000000000000000000000000000000000000000000000000000900463ffffffff1680630306fd691461007257806338db6dd3146100e3578063609ff1bd14610134578063b3f98adc14610165578063c040e6b8146101a3575b600080fd5b34801561007e57600080fd5b506100e16004803603604081101561009557600080fd5b81019080803573ffffffffffffffffffffffffffffffffffffffff169060200190929190803573ffffffffffffffffffffffffffffffffffffffff1690602001909291905050506101dc565b005b3480156100ef57600080fd5b506101326004803603602081101561010657600080fd5b81019080803573ffffffffffffffffffffffffffffffffffffffff1690602001909291905050506103dc565b005b34801561014057600080fd5b5061014961059f565b604051808260ff1660ff16815260200191505060405180910390f35b34801561017157600080fd5b506101a16004803603602081101561018857600080fd5b81019080803560ff16906020019092919050505061061b565b005b3480156101af57600080fd5b506101b8610743565b604051808260038111156101c857fe5b60ff16815260200191505060405180910390f35b600260038111156101e957fe5b600360009054906101000a900460ff16600381111561020457fe5b141515610210576103d8565b600360019054906101000a900473ffffffffffffffffffffffffffffffffffffffff1673ffffffffffffffffffffffffffffffffffffffff163373ffffffffffffffffffffffffffffffffffffffff1614151561026c576103d8565b60011515600560008473ffffffffffffffffffffffffffffffffffffffff1673ffffffffffffffffffffffffffffffffffffffff16815260200190815260200160002060000160009054906101000a900460ff16151514156102cd576103d8565b6001600460008373ffffffffffffffffffffffffffffffffffffffff1673ffffffffffffffffffffffffffffffffffffffff1681526020019081526020016000206000015401600460008373ffffffffffffffffffffffffffffffffffffffff1673ffffffffffffffffffffffffffffffffffffffff168152602001908152602001600020600001819055506001600560008473ffffffffffffffffffffffffffffffffffffffff1673ffffffffffffffffffffffffffffffffffffffff16815260200190815260200160002060000160006101000a81548160ff02191690831515021790555060038060006101000a81548160ff021916908360038111156103d257fe5b02179055505b5050565b600160038111156103e957fe5b600360009054906101000a900460ff16600381111561040457fe5b1415156104105761059c565b600360019054906101000a900473ffffffffffffffffffffffffffffffffffffffff1673ffffffffffffffffffffffffffffffffffffffff163373ffffffffffffffffffffffffffffffffffffffff161415806104b95750600460008273ffffffffffffffffffffffffffffffffffffffff1673ffffffffffffffffffffffffffffffffffffffff16815260200190815260200160002060010160009054906101000a900460ff165b156104c35761059c565b6001600460008373ffffffffffffffffffffffffffffffffffffffff1673ffffffffffffffffffffffffffffffffffffffff168152602001908152602001600020600001819055506000600460008373ffffffffffffffffffffffffffffffffffffffff1673ffffffffffffffffffffffffffffffffffffffff16815260200190815260200160002060010160006101000a81548160ff0219169083151502179055506002600360006101000a81548160ff0219169083600381111561058557fe5b021790555060008081548092919060010191905055505b50565b6000806000905060008090505b6006805490508160ff161015610616578160068260ff168154811015156105cf57fe5b906000526020600020016000015411156106095760068160ff168154811015156105f557fe5b906000526020600020016000015491508092505b80806001019150506105ac565b505090565b60038081111561062757fe5b600360009054906101000a900460ff16600381111561064257fe5b14151561064e57610740565b6000600460003373ffffffffffffffffffffffffffffffffffffffff1673ffffffffffffffffffffffffffffffffffffffff16815260200190815260200160002090508060010160009054906101000a900460ff16806106b657506006805490508260ff1610155b156106c15750610740565b60018160010160006101000a81548160ff021916908315150217905550818160010160016101000a81548160ff021916908360ff160217905550806000015460068360ff1681548110151561071257fe5b9060005260206000200160000160008282540192505081905550600160008154809291906001019190505550505b50565b600360009054906101000a900460ff168156fea165627a7a72305820371c0697109325de3f9658294d250f4b872f41797dad103f90374c4a1f2501d20029",
  "source": "pragma solidity >=0.4.21 <0.6.0;\r\n\r\ncontract Ballot {\r\n    struct Individual {\r\n    \tbool selected;\r\n    \tstring name;\r\n\r\n    }\r\n    int counter = 0;\r\n    int checker = 0;\r\n    struct Voter {\r\n        uint weight;\r\n        bool voted;\r\n        uint8 vote;\r\n       // uint VoterId;\r\n    }\r\n    uint id = 0;\r\n    struct Proposal {\r\n        uint voteCount;\r\n    }\r\n   enum Stage {Init, RegV, RegI, Vote}\r\n   Stage public stage = Stage.Init;\r\n    \r\n    address chairperson;\r\n    mapping(address => Voter) voters;\r\n    mapping(address => Individual) individuals;\r\n  \r\n    Proposal[] proposals;\r\n\r\n    \r\n  \r\n    /// Create a new ballot with $(_numProposals) different proposals.\r\n    constructor(uint8 _numProposals ) public  {\r\n        chairperson = msg.sender;\r\n        voters[chairperson].weight = 1; \r\n        proposals.length = _numProposals;\r\n        stage = Stage.RegV;\r\n       // startTime = now;\r\n    }\r\n\r\n   \r\n    function registerVoter(address toVoter) public {\r\n        if (stage != Stage.RegV) {return;}\r\n        if (msg.sender != chairperson || voters[toVoter].voted) return;\r\n        voters[toVoter].weight = 1;\r\n        voters[toVoter].voted = false;\r\n        stage = Stage.RegI;\r\n        counter++;\r\n       // voters[toVoter].VoterId = ++id;\r\n\r\n       // if (now > (startTime+ 10 seconds)) {stage = Stage.Vote; startTime = now;}        \r\n    }\r\n\r\nfunction registerIndividual(address toIndividual , address toVoter) public {\r\n        if (stage != Stage.RegI) {return;}\r\n      \r\n        if (msg.sender != chairperson ) return ;\r\n        if(individuals[toIndividual].selected == true) return;\r\n        \r\n\r\n        voters[toVoter].weight = voters[toVoter].weight + 1;\r\n     \r\n     \r\n        individuals[toIndividual].selected = true;\r\n            stage = Stage.Vote;        \r\n    }\r\n    /// Give a single vote to proposal $(toProposal).\r\n    function vote(uint8 toProposal) public  {\r\n        if (stage != Stage.Vote) {return;}\r\n        Voter storage sender = voters[msg.sender];\r\n        if (sender.voted || toProposal >= proposals.length) return;\r\n        sender.voted = true;\r\n        sender.vote = toProposal;   \r\n        proposals[toProposal].voteCount += sender.weight;\r\n        checker++;\r\n        //if(checker==counter)stage = Stage.Done; \r\n      //  stage = Stage.Done;     because after one vote only the state will be changed .. should not happen\r\n      // better method is written in the line above but is commented out two vars checker and counter are created\r\n        \r\n    }\r\n\r\n    function winningProposal() public view returns (uint8 _winningProposal) {\r\n      // if(stage != Stage.Done) {return 0 ;}\r\n        uint256 winningVoteCount = 0;\r\n        for (uint8 prop = 0; prop < proposals.length; prop++)\r\n            if (proposals[prop].voteCount > winningVoteCount) {\r\n                winningVoteCount = proposals[prop].voteCount;\r\n                _winningProposal = prop;\r\n            }\r\n       \r\n    }\r\n}",
  "sourcePath": "C:/Users/samika kashyap/test101/contracts/Ballot.sol",
  "compiler": {
    "name": "solc",
    "version": "0.5.0+commit.1d4f565a.Emscripten.clang"
  },
  "schemaVersion": "3.0.6",
  "updatedAt": "2019-04-12T10:35:33.263Z",
  "devdoc": {
    "methods": {}
  },
  "userdoc": {
    "methods": {
      "constructor": "Create a new ballot with $(_numProposals) different proposals.",
      "vote(uint8)": {
        "notice": "Give a single vote to proposal $(toProposal)."
      }
    }
  }
}